{
  "contractName": "Ballot",
  "abi": [
    {
      "inputs": [
        {
          "internalType": "string[]",
          "name": "proposalNames",
          "type": "string[]"
        }
      ],
      "stateMutability": "nonpayable",
      "type": "constructor"
    },
    {
      "inputs": [],
      "name": "chairperson",
      "outputs": [
        {
          "internalType": "address",
          "name": "",
          "type": "address"
        }
      ],
      "stateMutability": "view",
      "type": "function",
      "constant": true
    },
    {
      "inputs": [
        {
          "internalType": "uint256",
          "name": "",
          "type": "uint256"
        }
      ],
      "name": "proposals",
      "outputs": [
        {
          "internalType": "string",
          "name": "name",
          "type": "string"
        },
        {
          "internalType": "uint256",
          "name": "voteCount",
          "type": "uint256"
        }
      ],
      "stateMutability": "view",
      "type": "function",
      "constant": true
    },
    {
      "inputs": [
        {
          "internalType": "address",
          "name": "",
          "type": "address"
        }
      ],
      "name": "voters",
      "outputs": [
        {
          "internalType": "uint256",
          "name": "weight",
          "type": "uint256"
        },
        {
          "internalType": "bool",
          "name": "voted",
          "type": "bool"
        },
        {
          "internalType": "uint256",
          "name": "vote",
          "type": "uint256"
        }
      ],
      "stateMutability": "view",
      "type": "function",
      "constant": true
    },
    {
      "inputs": [
        {
          "internalType": "address",
          "name": "voter",
          "type": "address"
        }
      ],
      "name": "giveRightToVote",
      "outputs": [],
      "stateMutability": "nonpayable",
      "type": "function"
    },
    {
      "inputs": [
        {
          "internalType": "address",
          "name": "to",
          "type": "address"
        }
      ],
      "name": "delegate",
      "outputs": [],
      "stateMutability": "nonpayable",
      "type": "function"
    },
    {
      "inputs": [
        {
          "internalType": "uint256",
          "name": "proposal",
          "type": "uint256"
        }
      ],
      "name": "vote",
      "outputs": [],
      "stateMutability": "nonpayable",
      "type": "function"
    },
    {
      "inputs": [],
      "name": "winningProposal",
      "outputs": [
        {
          "internalType": "uint256",
          "name": "winningProposal_",
          "type": "uint256"
        }
      ],
      "stateMutability": "nonpayable",
      "type": "function"
    },
    {
      "inputs": [],
      "name": "winnerName",
      "outputs": [
        {
          "components": [
            {
              "internalType": "string",
              "name": "name",
              "type": "string"
            },
            {
              "internalType": "uint256",
              "name": "voteCount",
              "type": "uint256"
            }
          ],
          "internalType": "struct Ballot.Proposal",
          "name": "winnerName_",
          "type": "tuple"
        }
      ],
      "stateMutability": "nonpayable",
      "type": "function"
    },
    {
      "inputs": [],
      "name": "viewProposalsName",
      "outputs": [
        {
          "internalType": "string[]",
          "name": "",
          "type": "string[]"
        }
      ],
      "stateMutability": "view",
      "type": "function",
      "constant": true
    },
    {
      "inputs": [],
      "name": "viewChairperson",
      "outputs": [
        {
          "internalType": "address",
          "name": "",
          "type": "address"
        }
      ],
      "stateMutability": "view",
      "type": "function",
      "constant": true
    },
    {
      "inputs": [],
      "name": "summaryOfVotes",
      "outputs": [
        {
          "components": [
            {
              "internalType": "string",
              "name": "name",
              "type": "string"
            },
            {
              "internalType": "uint256",
              "name": "voteCount",
              "type": "uint256"
            }
          ],
          "internalType": "struct Ballot.Proposal[]",
          "name": "",
          "type": "tuple[]"
        }
      ],
      "stateMutability": "view",
      "type": "function",
      "constant": true
    },
    {
      "inputs": [],
      "name": "resetVoters",
      "outputs": [],
      "stateMutability": "nonpayable",
      "type": "function"
    }
  ],
  "bytecode": "0x60806040523480156200001157600080fd5b5060405162001dc438038062001dc4833981810160405281019062000037919062000472565b33600360006101000a81548173ffffffffffffffffffffffffffffffffffffffff021916908373ffffffffffffffffffffffffffffffffffffffff160217905550600160046000600360009054906101000a900473ffffffffffffffffffffffffffffffffffffffff1673ffffffffffffffffffffffffffffffffffffffff1673ffffffffffffffffffffffffffffffffffffffff1681526020019081526020016000206000018190555060005b8151811015620001db5760056040518060400160405280848481518110620001125762000111620004c3565b5b602002602001015181526020016000815250908060018154018082558091505060019003906000526020600020906002020160009091909190915060008201518160000190816200016491906200073d565b506020820151816001015550506000828281518110620001895762000188620004c3565b5b6020026020010151908060018154018082558091505060019003906000526020600020016000909190919091509081620001c491906200073d565b508080620001d29062000853565b915050620000e5565b5050620008a0565b6000604051905090565b600080fd5b600080fd5b600080fd5b6000601f19601f8301169050919050565b7f4e487b7100000000000000000000000000000000000000000000000000000000600052604160045260246000fd5b6200024782620001fc565b810181811067ffffffffffffffff821117156200026957620002686200020d565b5b80604052505050565b60006200027e620001e3565b90506200028c82826200023c565b919050565b600067ffffffffffffffff821115620002af57620002ae6200020d565b5b602082029050602081019050919050565b600080fd5b600080fd5b600067ffffffffffffffff821115620002e857620002e76200020d565b5b620002f382620001fc565b9050602081019050919050565b60005b838110156200032057808201518184015260208101905062000303565b60008484015250505050565b6000620003436200033d84620002ca565b62000272565b905082815260208101848484011115620003625762000361620002c5565b5b6200036f84828562000300565b509392505050565b600082601f8301126200038f576200038e620001f7565b5b8151620003a18482602086016200032c565b91505092915050565b6000620003c1620003bb8462000291565b62000272565b90508083825260208201905060208402830185811115620003e757620003e6620002c0565b5b835b818110156200043557805167ffffffffffffffff81111562000410576200040f620001f7565b5b8086016200041f898262000377565b85526020850194505050602081019050620003e9565b5050509392505050565b600082601f830112620004575762000456620001f7565b5b815162000469848260208601620003aa565b91505092915050565b6000602082840312156200048b576200048a620001ed565b5b600082015167ffffffffffffffff811115620004ac57620004ab620001f2565b5b620004ba848285016200043f565b91505092915050565b7f4e487b7100000000000000000000000000000000000000000000000000000000600052603260045260246000fd5b600081519050919050565b7f4e487b7100000000000000000000000000000000000000000000000000000000600052602260045260246000fd5b600060028204905060018216806200054557607f821691505b6020821081036200055b576200055a620004fd565b5b50919050565b60008190508160005260206000209050919050565b60006020601f8301049050919050565b600082821b905092915050565b600060088302620005c57fffffffffffffffffffffffffffffffffffffffffffffffffffffffffffffffff8262000586565b620005d1868362000586565b95508019841693508086168417925050509392505050565b6000819050919050565b6000819050919050565b60006200061e620006186200061284620005e9565b620005f3565b620005e9565b9050919050565b6000819050919050565b6200063a83620005fd565b62000652620006498262000625565b84845462000593565b825550505050565b600090565b620006696200065a565b620006768184846200062f565b505050565b5b818110156200069e57620006926000826200065f565b6001810190506200067c565b5050565b601f821115620006ed57620006b78162000561565b620006c28462000576565b81016020851015620006d2578190505b620006ea620006e18562000576565b8301826200067b565b50505b505050565b600082821c905092915050565b60006200071260001984600802620006f2565b1980831691505092915050565b60006200072d8383620006ff565b9150826002028217905092915050565b6200074882620004f2565b67ffffffffffffffff8111156200076457620007636200020d565b5b6200077082546200052c565b6200077d828285620006a2565b600060209050601f831160018114620007b55760008415620007a0578287015190505b620007ac85826200071f565b8655506200081c565b601f198416620007c58662000561565b60005b82811015620007ef57848901518255600182019150602085019450602081019050620007c8565b868310156200080f57848901516200080b601f891682620006ff565b8355505b6001600288020188555050505b505050505050565b7f4e487b7100000000000000000000000000000000000000000000000000000000600052601160045260246000fd5b60006200086082620005e9565b91507fffffffffffffffffffffffffffffffffffffffffffffffffffffffffffffffff820362000895576200089462000824565b5b600182019050919050565b61151480620008b06000396000f3fe608060405234801561001057600080fd5b50600436106100b45760003560e01c8063609ff1bd11610071578063609ff1bd14610168578063666409e8146101865780639e7b8d61146101a4578063a3ec138d146101c0578063e2ba53f0146101f2578063f236910314610210576100b4565b80630121b93f146100b9578063013cf08b146100d55780632e4176cf14610106578063553bd397146101245780635aec325c1461012e5780635c19a95c1461014c575b600080fd5b6100d360048036038101906100ce9190610d19565b61022e565b005b6100ef60048036038101906100ea9190610d19565b61033b565b6040516100fd929190610de5565b60405180910390f35b61010e6103f7565b60405161011b9190610e56565b60405180910390f35b61012c61041d565b005b610136610545565b6040516101439190610fc9565b60405180910390f35b61016660048036038101906101619190611017565b610640565b005b610170610881565b60405161017d9190611044565b60405180910390f35b61018e610983565b60405161019b9190611121565b60405180910390f35b6101be60048036038101906101b99190611017565b610a5c565b005b6101da60048036038101906101d59190611017565b610b86565b6040516101e99392919061115e565b60405180910390f35b6101fa610bbd565b60405161020791906111d2565b60405180910390f35b610218610c9a565b6040516102259190610e56565b60405180910390f35b6000600460003373ffffffffffffffffffffffffffffffffffffffff1673ffffffffffffffffffffffffffffffffffffffff168152602001908152602001600020905060018160010160006101000a81548160ff0219169083151502179055508181600201819055506001600583815481106102ad576102ac6111f4565b5b906000526020600020906002020160010160008282546102cd9190611252565b925050819055506001339080600181540180825580915050600190039060005260206000200160009091909190916101000a81548173ffffffffffffffffffffffffffffffffffffffff021916908373ffffffffffffffffffffffffffffffffffffffff1602179055505050565b6005818154811061034b57600080fd5b906000526020600020906002020160009150905080600001805461036e906112b5565b80601f016020809104026020016040519081016040528092919081815260200182805461039a906112b5565b80156103e75780601f106103bc576101008083540402835291602001916103e7565b820191906000526020600020905b8154815290600101906020018083116103ca57829003601f168201915b5050505050908060010154905082565b600360009054906101000a900473ffffffffffffffffffffffffffffffffffffffff1681565b60005b6001805490508110156104f35760006004600060018481548110610447576104466111f4565b5b9060005260206000200160009054906101000a900473ffffffffffffffffffffffffffffffffffffffff1673ffffffffffffffffffffffffffffffffffffffff1673ffffffffffffffffffffffffffffffffffffffff16815260200190815260200160002090506000816002018190555060008160010160006101000a81548160ff021916908315150217905550600081600001819055505080806104eb906112e6565b915050610420565b5060005b6005805490508110156105425760006005828154811061051a576105196111f4565b5b906000526020600020906002020160010181905550808061053a906112e6565b9150506104f7565b50565b60606005805480602002602001604051908101604052809291908181526020016000905b82821015610637578382906000526020600020906002020160405180604001604052908160008201805461059c906112b5565b80601f01602080910402602001604051908101604052809291908181526020018280546105c8906112b5565b80156106155780601f106105ea57610100808354040283529160200191610615565b820191906000526020600020905b8154815290600101906020018083116105f857829003601f168201915b5050505050815260200160018201548152505081526020019060010190610569565b50505050905090565b6000600460003373ffffffffffffffffffffffffffffffffffffffff1673ffffffffffffffffffffffffffffffffffffffff168152602001908152602001600020905060008160000154036106ca576040517f08c379a00000000000000000000000000000000000000000000000000000000081526004016106c19061137a565b60405180910390fd5b8060010160009054906101000a900460ff161561071c576040517f08c379a0000000000000000000000000000000000000000000000000000000008152600401610713906113e6565b60405180910390fd5b3373ffffffffffffffffffffffffffffffffffffffff168273ffffffffffffffffffffffffffffffffffffffff160361078a576040517f08c379a000000000000000000000000000000000000000000000000000000000815260040161078190611452565b60405180910390fd5b6000600460008473ffffffffffffffffffffffffffffffffffffffff1673ffffffffffffffffffffffffffffffffffffffff16815260200190815260200160002090506001816000015410156107df57600080fd5b60018260010160006101000a81548160ff0219169083151502179055508060010160009054906101000a900460ff161561085c57816000015460058260020154815481106108305761082f6111f4565b5b906000526020600020906002020160010160008282546108509190611252565b9250508190555061087c565b81600001548160000160008282546108749190611252565b925050819055505b505050565b6000806000905060005b6005805490508110156109045781600582815481106108ad576108ac6111f4565b5b90600052602060002090600202016001015411156108f157600581815481106108d9576108d86111f4565b5b90600052602060002090600202016001015491508092505b80806108fc906112e6565b91505061088b565b5060005b60058054905081101561097e57816005828154811061092a576109296111f4565b5b9060005260206000209060020201600101540361096b5760028190806001815401808255809150506001900390600052602060002001600090919091909150555b8080610976906112e6565b915050610908565b505090565b60606000805480602002602001604051908101604052809291908181526020016000905b82821015610a535783829060005260206000200180546109c6906112b5565b80601f01602080910402602001604051908101604052809291908181526020018280546109f2906112b5565b8015610a3f5780601f10610a1457610100808354040283529160200191610a3f565b820191906000526020600020905b815481529060010190602001808311610a2257829003601f168201915b5050505050815260200190600101906109a7565b50505050905090565b600460008273ffffffffffffffffffffffffffffffffffffffff1673ffffffffffffffffffffffffffffffffffffffff16815260200190815260200160002060010160009054906101000a900460ff1615610aec576040517f08c379a0000000000000000000000000000000000000000000000000000000008152600401610ae3906114be565b60405180910390fd5b6000600460008373ffffffffffffffffffffffffffffffffffffffff1673ffffffffffffffffffffffffffffffffffffffff1681526020019081526020016000206000015414610b3b57600080fd5b6001600460008373ffffffffffffffffffffffffffffffffffffffff1673ffffffffffffffffffffffffffffffffffffffff1681526020019081526020016000206000018190555050565b60046020528060005260406000206000915090508060000154908060010160009054906101000a900460ff16908060020154905083565b610bc5610cc4565b6005610bcf610881565b81548110610be057610bdf6111f4565b5b9060005260206000209060020201604051806040016040529081600082018054610c09906112b5565b80601f0160208091040260200160405190810160405280929190818152602001828054610c35906112b5565b8015610c825780601f10610c5757610100808354040283529160200191610c82565b820191906000526020600020905b815481529060010190602001808311610c6557829003601f168201915b50505050508152602001600182015481525050905090565b6000600360009054906101000a900473ffffffffffffffffffffffffffffffffffffffff16905090565b604051806040016040528060608152602001600081525090565b600080fd5b6000819050919050565b610cf681610ce3565b8114610d0157600080fd5b50565b600081359050610d1381610ced565b92915050565b600060208284031215610d2f57610d2e610cde565b5b6000610d3d84828501610d04565b91505092915050565b600081519050919050565b600082825260208201905092915050565b60005b83811015610d80578082015181840152602081019050610d65565b60008484015250505050565b6000601f19601f8301169050919050565b6000610da882610d46565b610db28185610d51565b9350610dc2818560208601610d62565b610dcb81610d8c565b840191505092915050565b610ddf81610ce3565b82525050565b60006040820190508181036000830152610dff8185610d9d565b9050610e0e6020830184610dd6565b9392505050565b600073ffffffffffffffffffffffffffffffffffffffff82169050919050565b6000610e4082610e15565b9050919050565b610e5081610e35565b82525050565b6000602082019050610e6b6000830184610e47565b92915050565b600081519050919050565b600082825260208201905092915050565b6000819050602082019050919050565b600082825260208201905092915050565b6000610eb982610d46565b610ec38185610e9d565b9350610ed3818560208601610d62565b610edc81610d8c565b840191505092915050565b610ef081610ce3565b82525050565b60006040830160008301518482036000860152610f138282610eae565b9150506020830151610f286020860182610ee7565b508091505092915050565b6000610f3f8383610ef6565b905092915050565b6000602082019050919050565b6000610f5f82610e71565b610f698185610e7c565b935083602082028501610f7b85610e8d565b8060005b85811015610fb75784840389528151610f988582610f33565b9450610fa383610f47565b925060208a01995050600181019050610f7f565b50829750879550505050505092915050565b60006020820190508181036000830152610fe38184610f54565b905092915050565b610ff481610e35565b8114610fff57600080fd5b50565b60008135905061101181610feb565b92915050565b60006020828403121561102d5761102c610cde565b5b600061103b84828501611002565b91505092915050565b60006020820190506110596000830184610dd6565b92915050565b600081519050919050565b600082825260208201905092915050565b6000819050602082019050919050565b60006110978383610eae565b905092915050565b6000602082019050919050565b60006110b78261105f565b6110c1818561106a565b9350836020820285016110d38561107b565b8060005b8581101561110f57848403895281516110f0858261108b565b94506110fb8361109f565b925060208a019950506001810190506110d7565b50829750879550505050505092915050565b6000602082019050818103600083015261113b81846110ac565b905092915050565b60008115159050919050565b61115881611143565b82525050565b60006060820190506111736000830186610dd6565b611180602083018561114f565b61118d6040830184610dd6565b949350505050565b600060408301600083015184820360008601526111b28282610eae565b91505060208301516111c76020860182610ee7565b508091505092915050565b600060208201905081810360008301526111ec8184611195565b905092915050565b7f4e487b7100000000000000000000000000000000000000000000000000000000600052603260045260246000fd5b7f4e487b7100000000000000000000000000000000000000000000000000000000600052601160045260246000fd5b600061125d82610ce3565b915061126883610ce3565b92508282019050808211156112805761127f611223565b5b92915050565b7f4e487b7100000000000000000000000000000000000000000000000000000000600052602260045260246000fd5b600060028204905060018216806112cd57607f821691505b6020821081036112e0576112df611286565b5b50919050565b60006112f182610ce3565b91507fffffffffffffffffffffffffffffffffffffffffffffffffffffffffffffffff820361132357611322611223565b5b600182019050919050565b7f596f752068617665206e6f20726967687420746f20766f746500000000000000600082015250565b6000611364601983610d51565b915061136f8261132e565b602082019050919050565b6000602082019050818103600083015261139381611357565b9050919050565b7f596f7520616c726561647920766f7465642e0000000000000000000000000000600082015250565b60006113d0601283610d51565b91506113db8261139a565b602082019050919050565b600060208201905081810360008301526113ff816113c3565b9050919050565b7f53656c662d64656c65676174696f6e20697320646973616c6c6f7765642e0000600082015250565b600061143c601e83610d51565b915061144782611406565b602082019050919050565b6000602082019050818103600083015261146b8161142f565b9050919050565b7f54686520766f74657220616c726561647920766f7465642e0000000000000000600082015250565b60006114a8601883610d51565b91506114b382611472565b602082019050919050565b600060208201905081810360008301526114d78161149b565b905091905056fea264697066735822122018df81a95c147f9d8ea286ac3939527bdbcbf4d040d628806c135be89f26287564736f6c63430008110033",
  "immutableReferences": {},
  "source": "// SPDX-License-Identifier: GPL-3.0\npragma solidity >=0.7.0 <0.9.0;\n/// @title Voting with delegation.\ncontract Ballot {\n    // This declares a new complex type which will\n    // be used for variables later.\n    // It will represent a single voter.\n    string[] proposalsNames;\n    address[] voterName; \n    uint[] tiedProposals;\n\n    struct Voter {\n        uint weight; // weight is accumulated by delegation\n        bool voted;  // if true, that person already voted\n       // address delegate; // person delegated to\n        uint vote;   // index of the voted proposal\n    }\n\n    // This is a type for a single proposal.\n    struct Proposal {\n        string name;   // short name (up to 32 bytes)\n        uint voteCount; // number of accumulated votes\n    }\n\n    address public chairperson;\n\n    // This declares a state variable that\n    // stores a `Voter` struct for each possible address.\n    mapping(address => Voter) public voters;\n\n    // A dynamically-sized array of `Proposal` structs.\n    Proposal[] public proposals;\n\n    /// Create a new ballot to choose one of `proposalNames`.\n    constructor(string[] memory proposalNames) {\n        chairperson = msg.sender;\n        voters[chairperson].weight = 1;\n\n        // For each of the provided proposal names,\n        // create a new proposal object and add it\n        // to the end of the array.\n        for (uint i = 0; i < proposalNames.length; i++) {\n            // `Proposal({...})` creates a temporary\n            // Proposal object and `proposals.push(...)`\n            // appends it to the end of `proposals`.\n            proposals.push(Proposal({\n                name: proposalNames[i],\n                voteCount: 0\n            }));\n\n            proposalsNames.push(proposalNames[i]);\n        }\n    }\n\n    // Give `voter` the right to vote on this ballot.\n    // May only be called by `chairperson`.\n    function giveRightToVote(address voter) external {\n        \n        require(\n            !voters[voter].voted,\n            \"The voter already voted.\"\n        );\n        require(voters[voter].weight == 0);\n        voters[voter].weight = 1;\n    }\n\n    /// Delegate your vote to the voter `to`.\n    function delegate(address to) external {\n        // assigns reference\n        Voter storage sender = voters[msg.sender];\n        require(sender.weight != 0, \"You have no right to vote\");\n        require(!sender.voted, \"You already voted.\");\n\n        require(to != msg.sender, \"Self-delegation is disallowed.\");\n\n        // Forward the delegation as long as\n        // `to` also delegated.\n        // In general, such loops are very dangerous,\n        // because if they run too long, they might\n        // need more gas than is available in a block.\n        // In this case, the delegation will not be executed,\n        // but in other situations, such loops might\n        // cause a contract to get \"stuck\" completely.\n        // while (voters[to].delegate != address(0)) {\n        //     to = voters[to].delegate;\n\n        //     // We found a loop in the delegation, not allowed.\n        //     require(to != msg.sender, \"Found loop in delegation.\");\n        // }\n\n        Voter storage delegate_ = voters[to];\n\n        // Voters cannot delegate to accounts that cannot vote.\n        require(delegate_.weight >= 1);\n\n        // Since `sender` is a reference, this\n        // modifies `voters[msg.sender]`.\n        sender.voted = true;\n        // sender.delegate = to;\n\n        if (delegate_.voted) {\n            // If the delegate already voted,\n            // directly add to the number of votes\n            proposals[delegate_.vote].voteCount += sender.weight;\n        } else {\n            // If the delegate did not vote yet,\n            // add to her weight.\n            delegate_.weight += sender.weight;\n        }\n    }\n\n    /// Give your vote (including votes delegated to you)\n    /// to proposal `proposals[proposal].name`.\n    function vote(uint proposal) external {\n        Voter storage sender = voters[msg.sender];\n        // require(sender.weight != 0, \"Has no right to vote\");\n        // require(!sender.voted, \"Already voted.\");\n        sender.voted = true;\n        sender.vote = proposal;\n\n        // If `proposal` is out of the range of the array,\n        // this will throw automatically and revert all\n        // changes.\n        //proposals[proposal].voteCount += sender.weight;\n        proposals[proposal].voteCount += 1;\n        voterName.push(msg.sender);\n    }\n\n    /// @dev Computes the winning proposal taking all\n    /// previous votes into account.\n    function winningProposal() public\n            returns (uint winningProposal_)\n    {\n        uint winningVoteCount = 0;\n        for (uint p = 0; p < proposals.length; p++) {\n            if (proposals[p].voteCount > winningVoteCount) {\n                winningVoteCount = proposals[p].voteCount;\n                winningProposal_ = p;\n            }\n        }\n         for (uint p = 0; p < proposals.length; p++) {\n             if (proposals[p].voteCount == winningVoteCount) {\n                tiedProposals.push(p);\n             }\n\n        }\n    }\n\n    // Calls winningProposal() function to get the index\n    // of the winner contained in the proposals array and then\n    // returns the name of the winner\n    function winnerName() external\n            returns (Proposal memory winnerName_)\n    {\n        winnerName_ = proposals[winningProposal()];\n    }\n\n    function viewProposalsName() public view returns (string[] memory){\n        return proposalsNames;\n    }\n\n    function viewChairperson() public view returns (address){\n        return chairperson;\n    }\n\n    function summaryOfVotes() public view returns (Proposal[] memory){\n        return proposals;\n    }\n\n    function resetVoters() external {\n        for(uint p = 0; p < voterName.length; p++){\n            Voter storage voter = voters[voterName[p]];\n            voter.vote = 0;\n            voter.voted = false;\n            voter.weight = 0;\n        }\n        for (uint p = 0; p < proposals.length; p++) {\n            proposals[p].voteCount = 0;\n        }   \n    }\n}",
  "sourcePath": "C:\\Users\\rpate\\OneDrive\\Desktop\\BlockchainProject-main\\contracts\\Ballot.sol",
  "compiler": {
    "name": "solc",
    "version": "0.8.17+commit.8df45f5f.Emscripten.clang"
  },
  "schemaVersion": "3.4.13",
  "updatedAt": "2023-05-11T02:41:16.840Z",
  "networkType": "ethereum",
  "devdoc": {
    "kind": "dev",
    "methods": {
      "winningProposal()": {
        "details": "Computes the winning proposal taking all previous votes into account."
      }
    },
    "title": "Voting with delegation.",
    "version": 1
  },
  "userdoc": {
    "kind": "user",
    "methods": {
      "constructor": {
        "notice": "Create a new ballot to choose one of `proposalNames`."
      },
      "delegate(address)": {
        "notice": "Delegate your vote to the voter `to`."
      },
      "vote(uint256)": {
        "notice": "Give your vote (including votes delegated to you) to proposal `proposals[proposal].name`."
      }
    },
    "version": 1
  }
}